{
  "_format": "hh-sol-artifact-1",
  "contractName": "PromptNFT",
  "sourceName": "contracts/PromptNFT.sol",
  "abi": [
    {
      "inputs": [
        {
          "internalType": "string",
          "name": "name",
          "type": "string"
        },
        {
          "internalType": "string",
          "name": "symbol",
          "type": "string"
        },
        {
          "internalType": "address",
          "name": "initialOwner",
          "type": "address"
        }
      ],
      "stateMutability": "nonpayable",
      "type": "constructor"
    },
    {
      "inputs": [
        {
          "internalType": "address",
          "name": "sender",
          "type": "address"
        },
        {
          "internalType": "uint256",
          "name": "tokenId",
          "type": "uint256"
        },
        {
          "internalType": "address",
          "name": "owner",
          "type": "address"
        }
      ],
      "name": "ERC721IncorrectOwner",
      "type": "error"
    },
    {
      "inputs": [
        {
          "internalType": "address",
          "name": "operator",
          "type": "address"
        },
        {
          "internalType": "uint256",
          "name": "tokenId",
          "type": "uint256"
        }
      ],
      "name": "ERC721InsufficientApproval",
      "type": "error"
    },
    {
      "inputs": [
        {
          "internalType": "address",
          "name": "approver",
          "type": "address"
        }
      ],
      "name": "ERC721InvalidApprover",
      "type": "error"
    },
    {
      "inputs": [
        {
          "internalType": "address",
          "name": "operator",
          "type": "address"
        }
      ],
      "name": "ERC721InvalidOperator",
      "type": "error"
    },
    {
      "inputs": [
        {
          "internalType": "address",
          "name": "owner",
          "type": "address"
        }
      ],
      "name": "ERC721InvalidOwner",
      "type": "error"
    },
    {
      "inputs": [
        {
          "internalType": "address",
          "name": "receiver",
          "type": "address"
        }
      ],
      "name": "ERC721InvalidReceiver",
      "type": "error"
    },
    {
      "inputs": [
        {
          "internalType": "address",
          "name": "sender",
          "type": "address"
        }
      ],
      "name": "ERC721InvalidSender",
      "type": "error"
    },
    {
      "inputs": [
        {
          "internalType": "uint256",
          "name": "tokenId",
          "type": "uint256"
        }
      ],
      "name": "ERC721NonexistentToken",
      "type": "error"
    },
    {
      "inputs": [
        {
          "internalType": "address",
          "name": "owner",
          "type": "address"
        }
      ],
      "name": "OwnableInvalidOwner",
      "type": "error"
    },
    {
      "inputs": [
        {
          "internalType": "address",
          "name": "account",
          "type": "address"
        }
      ],
      "name": "OwnableUnauthorizedAccount",
      "type": "error"
    },
    {
      "anonymous": false,
      "inputs": [
        {
          "indexed": true,
          "internalType": "address",
          "name": "owner",
          "type": "address"
        },
        {
          "indexed": true,
          "internalType": "address",
          "name": "approved",
          "type": "address"
        },
        {
          "indexed": true,
          "internalType": "uint256",
          "name": "tokenId",
          "type": "uint256"
        }
      ],
      "name": "Approval",
      "type": "event"
    },
    {
      "anonymous": false,
      "inputs": [
        {
          "indexed": true,
          "internalType": "address",
          "name": "owner",
          "type": "address"
        },
        {
          "indexed": true,
          "internalType": "address",
          "name": "operator",
          "type": "address"
        },
        {
          "indexed": false,
          "internalType": "bool",
          "name": "approved",
          "type": "bool"
        }
      ],
      "name": "ApprovalForAll",
      "type": "event"
    },
    {
      "anonymous": false,
      "inputs": [
        {
          "indexed": false,
          "internalType": "uint256",
          "name": "_fromTokenId",
          "type": "uint256"
        },
        {
          "indexed": false,
          "internalType": "uint256",
          "name": "_toTokenId",
          "type": "uint256"
        }
      ],
      "name": "BatchMetadataUpdate",
      "type": "event"
    },
    {
      "anonymous": false,
      "inputs": [
        {
          "indexed": false,
          "internalType": "uint256",
          "name": "_tokenId",
          "type": "uint256"
        }
      ],
      "name": "MetadataUpdate",
      "type": "event"
    },
    {
      "anonymous": false,
      "inputs": [
        {
          "indexed": true,
          "internalType": "address",
          "name": "previousOwner",
          "type": "address"
        },
        {
          "indexed": true,
          "internalType": "address",
          "name": "newOwner",
          "type": "address"
        }
      ],
      "name": "OwnershipTransferred",
      "type": "event"
    },
    {
      "anonymous": false,
      "inputs": [
        {
          "indexed": true,
          "internalType": "address",
          "name": "to",
          "type": "address"
        },
        {
          "indexed": true,
          "internalType": "uint256",
          "name": "tokenId",
          "type": "uint256"
        },
        {
          "indexed": false,
          "internalType": "string",
          "name": "prompt",
          "type": "string"
        }
      ],
      "name": "TokenMinted",
      "type": "event"
    },
    {
      "anonymous": false,
      "inputs": [
        {
          "indexed": true,
          "internalType": "address",
          "name": "from",
          "type": "address"
        },
        {
          "indexed": true,
          "internalType": "address",
          "name": "to",
          "type": "address"
        },
        {
          "indexed": true,
          "internalType": "uint256",
          "name": "tokenId",
          "type": "uint256"
        }
      ],
      "name": "Transfer",
      "type": "event"
    },
    {
      "inputs": [
        {
          "internalType": "address",
          "name": "to",
          "type": "address"
        },
        {
          "internalType": "uint256",
          "name": "tokenId",
          "type": "uint256"
        }
      ],
      "name": "approve",
      "outputs": [],
      "stateMutability": "nonpayable",
      "type": "function"
    },
    {
      "inputs": [
        {
          "internalType": "address",
          "name": "owner",
          "type": "address"
        }
      ],
      "name": "balanceOf",
      "outputs": [
        {
          "internalType": "uint256",
          "name": "",
          "type": "uint256"
        }
      ],
      "stateMutability": "view",
      "type": "function"
    },
    {
      "inputs": [
        {
          "internalType": "uint256",
          "name": "tokenId",
          "type": "uint256"
        }
      ],
      "name": "getApproved",
      "outputs": [
        {
          "internalType": "address",
          "name": "",
          "type": "address"
        }
      ],
      "stateMutability": "view",
      "type": "function"
    },
    {
      "inputs": [
        {
          "internalType": "uint256",
          "name": "tokenId",
          "type": "uint256"
        }
      ],
      "name": "getPrompt",
      "outputs": [
        {
          "internalType": "string",
          "name": "",
          "type": "string"
        }
      ],
      "stateMutability": "view",
      "type": "function"
    },
    {
      "inputs": [
        {
          "internalType": "address",
          "name": "user",
          "type": "address"
        }
      ],
      "name": "getUserTokens",
      "outputs": [
        {
          "internalType": "uint256[]",
          "name": "",
          "type": "uint256[]"
        }
      ],
      "stateMutability": "view",
      "type": "function"
    },
    {
      "inputs": [
        {
          "internalType": "address",
          "name": "owner",
          "type": "address"
        },
        {
          "internalType": "address",
          "name": "operator",
          "type": "address"
        }
      ],
      "name": "isApprovedForAll",
      "outputs": [
        {
          "internalType": "bool",
          "name": "",
          "type": "bool"
        }
      ],
      "stateMutability": "view",
      "type": "function"
    },
    {
      "inputs": [
        {
          "internalType": "address",
          "name": "to",
          "type": "address"
        },
        {
          "internalType": "string",
          "name": "prompt",
          "type": "string"
        }
      ],
      "name": "mint",
      "outputs": [
        {
          "internalType": "uint256",
          "name": "",
          "type": "uint256"
        }
      ],
      "stateMutability": "nonpayable",
      "type": "function"
    },
    {
      "inputs": [],
      "name": "name",
      "outputs": [
        {
          "internalType": "string",
          "name": "",
          "type": "string"
        }
      ],
      "stateMutability": "view",
      "type": "function"
    },
    {
      "inputs": [],
      "name": "owner",
      "outputs": [
        {
          "internalType": "address",
          "name": "",
          "type": "address"
        }
      ],
      "stateMutability": "view",
      "type": "function"
    },
    {
      "inputs": [
        {
          "internalType": "uint256",
          "name": "tokenId",
          "type": "uint256"
        }
      ],
      "name": "ownerOf",
      "outputs": [
        {
          "internalType": "address",
          "name": "",
          "type": "address"
        }
      ],
      "stateMutability": "view",
      "type": "function"
    },
    {
      "inputs": [],
      "name": "renounceOwnership",
      "outputs": [],
      "stateMutability": "nonpayable",
      "type": "function"
    },
    {
      "inputs": [
        {
          "internalType": "address",
          "name": "from",
          "type": "address"
        },
        {
          "internalType": "address",
          "name": "to",
          "type": "address"
        },
        {
          "internalType": "uint256",
          "name": "tokenId",
          "type": "uint256"
        }
      ],
      "name": "safeTransferFrom",
      "outputs": [],
      "stateMutability": "nonpayable",
      "type": "function"
    },
    {
      "inputs": [
        {
          "internalType": "address",
          "name": "from",
          "type": "address"
        },
        {
          "internalType": "address",
          "name": "to",
          "type": "address"
        },
        {
          "internalType": "uint256",
          "name": "tokenId",
          "type": "uint256"
        },
        {
          "internalType": "bytes",
          "name": "data",
          "type": "bytes"
        }
      ],
      "name": "safeTransferFrom",
      "outputs": [],
      "stateMutability": "nonpayable",
      "type": "function"
    },
    {
      "inputs": [
        {
          "internalType": "address",
          "name": "operator",
          "type": "address"
        },
        {
          "internalType": "bool",
          "name": "approved",
          "type": "bool"
        }
      ],
      "name": "setApprovalForAll",
      "outputs": [],
      "stateMutability": "nonpayable",
      "type": "function"
    },
    {
      "inputs": [
        {
          "internalType": "string",
          "name": "baseURI",
          "type": "string"
        }
      ],
      "name": "setBaseURI",
      "outputs": [],
      "stateMutability": "nonpayable",
      "type": "function"
    },
    {
      "inputs": [
        {
          "internalType": "bytes4",
          "name": "interfaceId",
          "type": "bytes4"
        }
      ],
      "name": "supportsInterface",
      "outputs": [
        {
          "internalType": "bool",
          "name": "",
          "type": "bool"
        }
      ],
      "stateMutability": "view",
      "type": "function"
    },
    {
      "inputs": [],
      "name": "symbol",
      "outputs": [
        {
          "internalType": "string",
          "name": "",
          "type": "string"
        }
      ],
      "stateMutability": "view",
      "type": "function"
    },
    {
      "inputs": [
        {
          "internalType": "uint256",
          "name": "tokenId",
          "type": "uint256"
        }
      ],
      "name": "tokenURI",
      "outputs": [
        {
          "internalType": "string",
          "name": "",
          "type": "string"
        }
      ],
      "stateMutability": "view",
      "type": "function"
    },
    {
      "inputs": [
        {
          "internalType": "address",
          "name": "from",
          "type": "address"
        },
        {
          "internalType": "address",
          "name": "to",
          "type": "address"
        },
        {
          "internalType": "uint256",
          "name": "tokenId",
          "type": "uint256"
        }
      ],
      "name": "transferFrom",
      "outputs": [],
      "stateMutability": "nonpayable",
      "type": "function"
    },
    {
      "inputs": [
        {
          "internalType": "address",
          "name": "newOwner",
          "type": "address"
        }
      ],
      "name": "transferOwnership",
      "outputs": [],
      "stateMutability": "nonpayable",
      "type": "function"
    }
  ],
  "bytecode": "0x60806040523480156200001157600080fd5b5060405162001abd38038062001abd8339810160408190526200003491620001b8565b8083836000620000458382620002d4565b506001620000548282620002d4565b5050506001600160a01b0381166200008657604051631e4fbdf760e01b81526000600482015260240160405180910390fd5b6200009181620000a1565b5050600160085550620003a09050565b600780546001600160a01b038381166001600160a01b0319831681179093556040519116919082907f8be0079c531659141344cd1fd0a4f28419497f9722a3daafe3b4186f6b6457e090600090a35050565b634e487b7160e01b600052604160045260246000fd5b600082601f8301126200011b57600080fd5b81516001600160401b0380821115620001385762000138620000f3565b604051601f8301601f19908116603f01168101908282118183101715620001635762000163620000f3565b816040528381526020925086838588010111156200018057600080fd5b600091505b83821015620001a4578582018301518183018401529082019062000185565b600093810190920192909252949350505050565b600080600060608486031215620001ce57600080fd5b83516001600160401b0380821115620001e657600080fd5b620001f48783880162000109565b945060208601519150808211156200020b57600080fd5b506200021a8682870162000109565b604086015190935090506001600160a01b03811681146200023a57600080fd5b809150509250925092565b600181811c908216806200025a57607f821691505b6020821081036200027b57634e487b7160e01b600052602260045260246000fd5b50919050565b601f821115620002cf57600081815260208120601f850160051c81016020861015620002aa5750805b601f850160051c820191505b81811015620002cb57828155600101620002b6565b5050505b505050565b81516001600160401b03811115620002f057620002f0620000f3565b620003088162000301845462000245565b8462000281565b602080601f831160018114620003405760008415620003275750858301515b600019600386901b1c1916600185901b178555620002cb565b600085815260208120601f198616915b82811015620003715788860151825594840194600190910190840162000350565b5085821015620003905787850151600019600388901b60f8161c191681555b5050505050600190811b01905550565b61170d80620003b06000396000f3fe608060405234801561001057600080fd5b506004361061012c5760003560e01c8063715018a6116100ad578063c87b56dd11610071578063c87b56dd14610282578063cf73cdd214610295578063d0def521146102a8578063e985e9c5146102bb578063f2fde38b146102ce57600080fd5b8063715018a61461023b5780638da5cb5b1461024357806395d89b4114610254578063a22cb4651461025c578063b88d4fde1461026f57600080fd5b806342842e0e116100f457806342842e0e146101c1578063519dc8d2146101d457806355f804b3146101f45780636352211e1461020757806370a082311461021a57600080fd5b806301ffc9a71461013157806306fdde0314610159578063081812fc1461016e578063095ea7b31461019957806323b872dd146101ae575b600080fd5b61014461013f36600461113d565b6102e1565b60405190151581526020015b60405180910390f35b6101616102f2565b60405161015091906111aa565b61018161017c3660046111bd565b610384565b6040516001600160a01b039091168152602001610150565b6101ac6101a73660046111f2565b6103ad565b005b6101ac6101bc36600461121c565b6103bc565b6101ac6101cf36600461121c565b61044c565b6101e76101e2366004611258565b61046c565b6040516101509190611273565b6101ac610202366004611363565b61053a565b6101816102153660046111bd565b61054e565b61022d610228366004611258565b610559565b604051908152602001610150565b6101ac6105a1565b6007546001600160a01b0316610181565b6101616105b5565b6101ac61026a366004611398565b6105c4565b6101ac61027d3660046113d4565b6105cf565b6101616102903660046111bd565b6105e7565b6101616102a33660046111bd565b6105f2565b61022d6102b6366004611450565b6106ee565b6101446102c936600461149e565b610774565b6101ac6102dc366004611258565b6107a2565b60006102ec826107e0565b92915050565b606060008054610301906114d1565b80601f016020809104026020016040519081016040528092919081815260200182805461032d906114d1565b801561037a5780601f1061034f5761010080835404028352916020019161037a565b820191906000526020600020905b81548152906001019060200180831161035d57829003601f168201915b5050505050905090565b600061038f82610805565b506000828152600460205260409020546001600160a01b03166102ec565b6103b882823361083e565b5050565b6001600160a01b0382166103eb57604051633250574960e11b8152600060048201526024015b60405180910390fd5b60006103f883833361084b565b9050836001600160a01b0316816001600160a01b031614610446576040516364283d7b60e01b81526001600160a01b03808616600483015260248201849052821660448201526064016103e2565b50505050565b610467838383604051806020016040528060008152506105cf565b505050565b6060600061047983610559565b905060008167ffffffffffffffff811115610496576104966112b7565b6040519080825280602002602001820160405280156104bf578160200160208202803683370190505b509050600060015b600854811015610530576000818152600260205260409020546001600160a01b0387811691160361051e57808383815181106105055761050561150b565b60209081029190910101528161051a81611521565b9250505b8061052881611521565b9150506104c7565b5090949350505050565b610542610944565b60096103b8828261158e565b60006102ec82610805565b60006001600160a01b038216610585576040516322718ad960e21b8152600060048201526024016103e2565b506001600160a01b031660009081526003602052604090205490565b6105a9610944565b6105b36000610971565b565b606060018054610301906114d1565b6103b83383836109c3565b6105da8484846103bc565b6104463385858585610a62565b60606102ec82610b8d565b6000818152600260205260409020546060906001600160a01b03166106505760405162461bcd60e51b8152602060048201526014602482015273151bdad95b88191bd95cc81b9bdd08195e1a5cdd60621b60448201526064016103e2565b6000828152600a602052604090208054610669906114d1565b80601f0160208091040260200160405190810160405280929190818152602001828054610695906114d1565b80156106e25780601f106106b7576101008083540402835291602001916106e2565b820191906000526020600020905b8154815290600101906020018083116106c557829003601f168201915b50505050509050919050565b600880546000918291908261070283611521565b9190505590506107128482610c91565b6000818152600a6020526040902061072a848261158e565b5080846001600160a01b03167fdf92894dc4675a7333caa5903b69cf5d8e8ec0d3f361c88207b6688e525703bb8560405161076591906111aa565b60405180910390a39392505050565b6001600160a01b03918216600090815260056020908152604080832093909416825291909152205460ff1690565b6107aa610944565b6001600160a01b0381166107d457604051631e4fbdf760e01b8152600060048201526024016103e2565b6107dd81610971565b50565b60006001600160e01b03198216632483248360e11b14806102ec57506102ec82610cab565b6000818152600260205260408120546001600160a01b0316806102ec57604051637e27328960e01b8152600481018490526024016103e2565b6104678383836001610cfb565b6000828152600260205260408120546001600160a01b039081169083161561087857610878818486610e01565b6001600160a01b038116156108b657610895600085600080610cfb565b6001600160a01b038116600090815260036020526040902080546000190190555b6001600160a01b038516156108e5576001600160a01b0385166000908152600360205260409020805460010190555b60008481526002602052604080822080546001600160a01b0319166001600160a01b0389811691821790925591518793918516917fddf252ad1be2c89b69c2b068fc378daa952ba7f163c4a11628f55a4df523b3ef91a4949350505050565b6007546001600160a01b031633146105b35760405163118cdaa760e01b81523360048201526024016103e2565b600780546001600160a01b038381166001600160a01b0319831681179093556040519116919082907f8be0079c531659141344cd1fd0a4f28419497f9722a3daafe3b4186f6b6457e090600090a35050565b6001600160a01b0382166109f557604051630b61174360e31b81526001600160a01b03831660048201526024016103e2565b6001600160a01b03838116600081815260056020908152604080832094871680845294825291829020805460ff191686151590811790915591519182527f17307eab39ab6107e8899845ad3d59bd9653f200f220920489ca2b5937696c31910160405180910390a3505050565b6001600160a01b0383163b15610b8657604051630a85bd0160e11b81526001600160a01b0384169063150b7a0290610aa490889088908790879060040161164e565b6020604051808303816000875af1925050508015610adf575060408051601f3d908101601f19168201909252610adc9181019061168b565b60015b610b48573d808015610b0d576040519150601f19603f3d011682016040523d82523d6000602084013e610b12565b606091505b508051600003610b4057604051633250574960e11b81526001600160a01b03851660048201526024016103e2565b805181602001fd5b6001600160e01b03198116630a85bd0160e11b14610b8457604051633250574960e11b81526001600160a01b03851660048201526024016103e2565b505b5050505050565b6060610b9882610805565b5060008281526006602052604081208054610bb2906114d1565b80601f0160208091040260200160405190810160405280929190818152602001828054610bde906114d1565b8015610c2b5780601f10610c0057610100808354040283529160200191610c2b565b820191906000526020600020905b815481529060010190602001808311610c0e57829003601f168201915b505050505090506000610c3c610e65565b90508051600003610c4e575092915050565b815115610c80578082604051602001610c689291906116a8565b60405160208183030381529060405292505050919050565b610c8984610e74565b949350505050565b6103b8828260405180602001604052806000815250610edc565b60006001600160e01b031982166380ac58cd60e01b1480610cdc57506001600160e01b03198216635b5e139f60e01b145b806102ec57506301ffc9a760e01b6001600160e01b03198316146102ec565b8080610d0f57506001600160a01b03821615155b15610dd1576000610d1f84610805565b90506001600160a01b03831615801590610d4b5750826001600160a01b0316816001600160a01b031614155b8015610d5e5750610d5c8184610774565b155b15610d875760405163a9fbf51f60e01b81526001600160a01b03841660048201526024016103e2565b8115610dcf5783856001600160a01b0316826001600160a01b03167f8c5be1e5ebec7d5bd14f71427d1e84f3dd0314c0f7b2291e5b200ac8c7c3b92560405160405180910390a45b505b5050600090815260046020526040902080546001600160a01b0319166001600160a01b0392909216919091179055565b610e0c838383610ef4565b610467576001600160a01b038316610e3a57604051637e27328960e01b8152600481018290526024016103e2565b60405163177e802f60e01b81526001600160a01b0383166004820152602481018290526044016103e2565b606060098054610301906114d1565b6060610e7f82610805565b506000610e8a610e65565b90506000815111610eaa5760405180602001604052806000815250610ed5565b80610eb484610f57565b604051602001610ec59291906116a8565b6040516020818303038152906040525b9392505050565b610ee68383610fea565b610467336000858585610a62565b60006001600160a01b03831615801590610c895750826001600160a01b0316846001600160a01b03161480610f2e5750610f2e8484610774565b80610c895750506000908152600460205260409020546001600160a01b03908116911614919050565b60606000610f648361104f565b600101905060008167ffffffffffffffff811115610f8457610f846112b7565b6040519080825280601f01601f191660200182016040528015610fae576020820181803683370190505b5090508181016020015b600019016f181899199a1a9b1b9c1cb0b131b232b360811b600a86061a8153600a8504945084610fb857509392505050565b6001600160a01b03821661101457604051633250574960e11b8152600060048201526024016103e2565b60006110228383600061084b565b90506001600160a01b03811615610467576040516339e3563760e11b8152600060048201526024016103e2565b60008072184f03e93ff9f4daa797ed6e38ed64bf6a1f0160401b831061108e5772184f03e93ff9f4daa797ed6e38ed64bf6a1f0160401b830492506040015b6d04ee2d6d415b85acef810000000083106110ba576d04ee2d6d415b85acef8100000000830492506020015b662386f26fc1000083106110d857662386f26fc10000830492506010015b6305f5e10083106110f0576305f5e100830492506008015b612710831061110457612710830492506004015b60648310611116576064830492506002015b600a83106102ec5760010192915050565b6001600160e01b0319811681146107dd57600080fd5b60006020828403121561114f57600080fd5b8135610ed581611127565b60005b8381101561117557818101518382015260200161115d565b50506000910152565b6000815180845261119681602086016020860161115a565b601f01601f19169290920160200192915050565b602081526000610ed5602083018461117e565b6000602082840312156111cf57600080fd5b5035919050565b80356001600160a01b03811681146111ed57600080fd5b919050565b6000806040838503121561120557600080fd5b61120e836111d6565b946020939093013593505050565b60008060006060848603121561123157600080fd5b61123a846111d6565b9250611248602085016111d6565b9150604084013590509250925092565b60006020828403121561126a57600080fd5b610ed5826111d6565b6020808252825182820181905260009190848201906040850190845b818110156112ab5783518352928401929184019160010161128f565b50909695505050505050565b634e487b7160e01b600052604160045260246000fd5b600067ffffffffffffffff808411156112e8576112e86112b7565b604051601f8501601f19908116603f01168101908282118183101715611310576113106112b7565b8160405280935085815286868601111561132957600080fd5b858560208301376000602087830101525050509392505050565b600082601f83011261135457600080fd5b610ed5838335602085016112cd565b60006020828403121561137557600080fd5b813567ffffffffffffffff81111561138c57600080fd5b610c8984828501611343565b600080604083850312156113ab57600080fd5b6113b4836111d6565b9150602083013580151581146113c957600080fd5b809150509250929050565b600080600080608085870312156113ea57600080fd5b6113f3856111d6565b9350611401602086016111d6565b925060408501359150606085013567ffffffffffffffff81111561142457600080fd5b8501601f8101871361143557600080fd5b611444878235602084016112cd565b91505092959194509250565b6000806040838503121561146357600080fd5b61146c836111d6565b9150602083013567ffffffffffffffff81111561148857600080fd5b61149485828601611343565b9150509250929050565b600080604083850312156114b157600080fd5b6114ba836111d6565b91506114c8602084016111d6565b90509250929050565b600181811c908216806114e557607f821691505b60208210810361150557634e487b7160e01b600052602260045260246000fd5b50919050565b634e487b7160e01b600052603260045260246000fd5b60006001820161154157634e487b7160e01b600052601160045260246000fd5b5060010190565b601f82111561046757600081815260208120601f850160051c8101602086101561156f5750805b601f850160051c820191505b81811015610b845782815560010161157b565b815167ffffffffffffffff8111156115a8576115a86112b7565b6115bc816115b684546114d1565b84611548565b602080601f8311600181146115f157600084156115d95750858301515b600019600386901b1c1916600185901b178555610b84565b600085815260208120601f198616915b8281101561162057888601518255948401946001909101908401611601565b508582101561163e5787850151600019600388901b60f8161c191681555b5050505050600190811b01905550565b6001600160a01b03858116825284166020820152604081018390526080606082018190526000906116819083018461117e565b9695505050505050565b60006020828403121561169d57600080fd5b8151610ed581611127565b600083516116ba81846020880161115a565b8351908301906116ce81836020880161115a565b0194935050505056fea2646970667358221220ecefb12315186dafdd9942509ac16953808e18ba9cd9f87c7678a845e60e509c64736f6c63430008140033",
  "linkReferences": {},
  "deployedLinkReferences": {}
}